{
  "_format": "hh-sol-artifact-1",
  "contractName": "DemoNFT",
  "sourceName": "contracts/demo/DemoNFT.sol",
  "abi": [
    {
      "inputs": [],
      "stateMutability": "nonpayable",
      "type": "constructor"
    },
    {
      "inputs": [
        {
          "internalType": "address",
          "name": "sender",
          "type": "address"
        },
        {
          "internalType": "uint256",
          "name": "tokenId",
          "type": "uint256"
        },
        {
          "internalType": "address",
          "name": "owner",
          "type": "address"
        }
      ],
      "name": "ERC721IncorrectOwner",
      "type": "error"
    },
    {
      "inputs": [
        {
          "internalType": "address",
          "name": "operator",
          "type": "address"
        },
        {
          "internalType": "uint256",
          "name": "tokenId",
          "type": "uint256"
        }
      ],
      "name": "ERC721InsufficientApproval",
      "type": "error"
    },
    {
      "inputs": [
        {
          "internalType": "address",
          "name": "approver",
          "type": "address"
        }
      ],
      "name": "ERC721InvalidApprover",
      "type": "error"
    },
    {
      "inputs": [
        {
          "internalType": "address",
          "name": "operator",
          "type": "address"
        }
      ],
      "name": "ERC721InvalidOperator",
      "type": "error"
    },
    {
      "inputs": [
        {
          "internalType": "address",
          "name": "owner",
          "type": "address"
        }
      ],
      "name": "ERC721InvalidOwner",
      "type": "error"
    },
    {
      "inputs": [
        {
          "internalType": "address",
          "name": "receiver",
          "type": "address"
        }
      ],
      "name": "ERC721InvalidReceiver",
      "type": "error"
    },
    {
      "inputs": [
        {
          "internalType": "address",
          "name": "sender",
          "type": "address"
        }
      ],
      "name": "ERC721InvalidSender",
      "type": "error"
    },
    {
      "inputs": [
        {
          "internalType": "uint256",
          "name": "tokenId",
          "type": "uint256"
        }
      ],
      "name": "ERC721NonexistentToken",
      "type": "error"
    },
    {
      "inputs": [
        {
          "internalType": "address",
          "name": "owner",
          "type": "address"
        }
      ],
      "name": "OwnableInvalidOwner",
      "type": "error"
    },
    {
      "inputs": [
        {
          "internalType": "address",
          "name": "account",
          "type": "address"
        }
      ],
      "name": "OwnableUnauthorizedAccount",
      "type": "error"
    },
    {
      "anonymous": false,
      "inputs": [
        {
          "indexed": true,
          "internalType": "address",
          "name": "owner",
          "type": "address"
        },
        {
          "indexed": true,
          "internalType": "address",
          "name": "approved",
          "type": "address"
        },
        {
          "indexed": true,
          "internalType": "uint256",
          "name": "tokenId",
          "type": "uint256"
        }
      ],
      "name": "Approval",
      "type": "event"
    },
    {
      "anonymous": false,
      "inputs": [
        {
          "indexed": true,
          "internalType": "address",
          "name": "owner",
          "type": "address"
        },
        {
          "indexed": true,
          "internalType": "address",
          "name": "operator",
          "type": "address"
        },
        {
          "indexed": false,
          "internalType": "bool",
          "name": "approved",
          "type": "bool"
        }
      ],
      "name": "ApprovalForAll",
      "type": "event"
    },
    {
      "anonymous": false,
      "inputs": [
        {
          "indexed": false,
          "internalType": "uint256",
          "name": "_fromTokenId",
          "type": "uint256"
        },
        {
          "indexed": false,
          "internalType": "uint256",
          "name": "_toTokenId",
          "type": "uint256"
        }
      ],
      "name": "BatchMetadataUpdate",
      "type": "event"
    },
    {
      "anonymous": false,
      "inputs": [
        {
          "indexed": false,
          "internalType": "uint256",
          "name": "_tokenId",
          "type": "uint256"
        }
      ],
      "name": "MetadataUpdate",
      "type": "event"
    },
    {
      "anonymous": false,
      "inputs": [
        {
          "indexed": true,
          "internalType": "address",
          "name": "to",
          "type": "address"
        },
        {
          "indexed": true,
          "internalType": "uint256",
          "name": "tokenId",
          "type": "uint256"
        },
        {
          "indexed": false,
          "internalType": "string",
          "name": "tokenURI",
          "type": "string"
        }
      ],
      "name": "NFTMinted",
      "type": "event"
    },
    {
      "anonymous": false,
      "inputs": [
        {
          "indexed": true,
          "internalType": "address",
          "name": "previousOwner",
          "type": "address"
        },
        {
          "indexed": true,
          "internalType": "address",
          "name": "newOwner",
          "type": "address"
        }
      ],
      "name": "OwnershipTransferred",
      "type": "event"
    },
    {
      "anonymous": false,
      "inputs": [
        {
          "indexed": true,
          "internalType": "address",
          "name": "from",
          "type": "address"
        },
        {
          "indexed": true,
          "internalType": "address",
          "name": "to",
          "type": "address"
        },
        {
          "indexed": true,
          "internalType": "uint256",
          "name": "tokenId",
          "type": "uint256"
        }
      ],
      "name": "Transfer",
      "type": "event"
    },
    {
      "inputs": [],
      "name": "MAX_MINT_PER_ADDRESS",
      "outputs": [
        {
          "internalType": "uint256",
          "name": "",
          "type": "uint256"
        }
      ],
      "stateMutability": "view",
      "type": "function"
    },
    {
      "inputs": [],
      "name": "MAX_SUPPLY",
      "outputs": [
        {
          "internalType": "uint256",
          "name": "",
          "type": "uint256"
        }
      ],
      "stateMutability": "view",
      "type": "function"
    },
    {
      "inputs": [
        {
          "internalType": "address",
          "name": "to",
          "type": "address"
        },
        {
          "internalType": "uint256",
          "name": "tokenId",
          "type": "uint256"
        }
      ],
      "name": "approve",
      "outputs": [],
      "stateMutability": "nonpayable",
      "type": "function"
    },
    {
      "inputs": [
        {
          "internalType": "address",
          "name": "owner",
          "type": "address"
        }
      ],
      "name": "balanceOf",
      "outputs": [
        {
          "internalType": "uint256",
          "name": "",
          "type": "uint256"
        }
      ],
      "stateMutability": "view",
      "type": "function"
    },
    {
      "inputs": [
        {
          "internalType": "address",
          "name": "to",
          "type": "address"
        }
      ],
      "name": "freeMint",
      "outputs": [],
      "stateMutability": "nonpayable",
      "type": "function"
    },
    {
      "inputs": [
        {
          "internalType": "uint256",
          "name": "tokenId",
          "type": "uint256"
        }
      ],
      "name": "getApproved",
      "outputs": [
        {
          "internalType": "address",
          "name": "",
          "type": "address"
        }
      ],
      "stateMutability": "view",
      "type": "function"
    },
    {
      "inputs": [
        {
          "internalType": "address",
          "name": "owner",
          "type": "address"
        },
        {
          "internalType": "address",
          "name": "operator",
          "type": "address"
        }
      ],
      "name": "isApprovedForAll",
      "outputs": [
        {
          "internalType": "bool",
          "name": "",
          "type": "bool"
        }
      ],
      "stateMutability": "view",
      "type": "function"
    },
    {
      "inputs": [
        {
          "internalType": "address",
          "name": "to",
          "type": "address"
        }
      ],
      "name": "mint",
      "outputs": [],
      "stateMutability": "payable",
      "type": "function"
    },
    {
      "inputs": [],
      "name": "mintPrice",
      "outputs": [
        {
          "internalType": "uint256",
          "name": "",
          "type": "uint256"
        }
      ],
      "stateMutability": "view",
      "type": "function"
    },
    {
      "inputs": [
        {
          "internalType": "address",
          "name": "",
          "type": "address"
        }
      ],
      "name": "mintedCount",
      "outputs": [
        {
          "internalType": "uint256",
          "name": "",
          "type": "uint256"
        }
      ],
      "stateMutability": "view",
      "type": "function"
    },
    {
      "inputs": [],
      "name": "name",
      "outputs": [
        {
          "internalType": "string",
          "name": "",
          "type": "string"
        }
      ],
      "stateMutability": "view",
      "type": "function"
    },
    {
      "inputs": [],
      "name": "owner",
      "outputs": [
        {
          "internalType": "address",
          "name": "",
          "type": "address"
        }
      ],
      "stateMutability": "view",
      "type": "function"
    },
    {
      "inputs": [
        {
          "internalType": "uint256",
          "name": "tokenId",
          "type": "uint256"
        }
      ],
      "name": "ownerOf",
      "outputs": [
        {
          "internalType": "address",
          "name": "",
          "type": "address"
        }
      ],
      "stateMutability": "view",
      "type": "function"
    },
    {
      "inputs": [],
      "name": "renounceOwnership",
      "outputs": [],
      "stateMutability": "nonpayable",
      "type": "function"
    },
    {
      "inputs": [
        {
          "internalType": "address",
          "name": "from",
          "type": "address"
        },
        {
          "internalType": "address",
          "name": "to",
          "type": "address"
        },
        {
          "internalType": "uint256",
          "name": "tokenId",
          "type": "uint256"
        }
      ],
      "name": "safeTransferFrom",
      "outputs": [],
      "stateMutability": "nonpayable",
      "type": "function"
    },
    {
      "inputs": [
        {
          "internalType": "address",
          "name": "from",
          "type": "address"
        },
        {
          "internalType": "address",
          "name": "to",
          "type": "address"
        },
        {
          "internalType": "uint256",
          "name": "tokenId",
          "type": "uint256"
        },
        {
          "internalType": "bytes",
          "name": "data",
          "type": "bytes"
        }
      ],
      "name": "safeTransferFrom",
      "outputs": [],
      "stateMutability": "nonpayable",
      "type": "function"
    },
    {
      "inputs": [
        {
          "internalType": "address",
          "name": "operator",
          "type": "address"
        },
        {
          "internalType": "bool",
          "name": "approved",
          "type": "bool"
        }
      ],
      "name": "setApprovalForAll",
      "outputs": [],
      "stateMutability": "nonpayable",
      "type": "function"
    },
    {
      "inputs": [
        {
          "internalType": "string",
          "name": "baseURI",
          "type": "string"
        }
      ],
      "name": "setBaseURI",
      "outputs": [],
      "stateMutability": "nonpayable",
      "type": "function"
    },
    {
      "inputs": [
        {
          "internalType": "uint256",
          "name": "_mintPrice",
          "type": "uint256"
        }
      ],
      "name": "setMintPrice",
      "outputs": [],
      "stateMutability": "nonpayable",
      "type": "function"
    },
    {
      "inputs": [
        {
          "internalType": "bytes4",
          "name": "interfaceId",
          "type": "bytes4"
        }
      ],
      "name": "supportsInterface",
      "outputs": [
        {
          "internalType": "bool",
          "name": "",
          "type": "bool"
        }
      ],
      "stateMutability": "view",
      "type": "function"
    },
    {
      "inputs": [],
      "name": "symbol",
      "outputs": [
        {
          "internalType": "string",
          "name": "",
          "type": "string"
        }
      ],
      "stateMutability": "view",
      "type": "function"
    },
    {
      "inputs": [
        {
          "internalType": "uint256",
          "name": "tokenId",
          "type": "uint256"
        }
      ],
      "name": "tokenURI",
      "outputs": [
        {
          "internalType": "string",
          "name": "",
          "type": "string"
        }
      ],
      "stateMutability": "view",
      "type": "function"
    },
    {
      "inputs": [],
      "name": "totalSupply",
      "outputs": [
        {
          "internalType": "uint256",
          "name": "",
          "type": "uint256"
        }
      ],
      "stateMutability": "view",
      "type": "function"
    },
    {
      "inputs": [
        {
          "internalType": "address",
          "name": "from",
          "type": "address"
        },
        {
          "internalType": "address",
          "name": "to",
          "type": "address"
        },
        {
          "internalType": "uint256",
          "name": "tokenId",
          "type": "uint256"
        }
      ],
      "name": "transferFrom",
      "outputs": [],
      "stateMutability": "nonpayable",
      "type": "function"
    },
    {
      "inputs": [
        {
          "internalType": "address",
          "name": "newOwner",
          "type": "address"
        }
      ],
      "name": "transferOwnership",
      "outputs": [],
      "stateMutability": "nonpayable",
      "type": "function"
    },
    {
      "inputs": [],
      "name": "withdraw",
      "outputs": [],
      "stateMutability": "nonpayable",
      "type": "function"
    }
  ],
  "bytecode": "0x6080604052662386f26fc100006009553480156200001c57600080fd5b50336040518060400160405280600881526020016711195b5bc813919560c21b815250604051806040016040528060048152602001631113919560e21b81525081600090816200006d9190620001e3565b5060016200007c8282620001e3565b5050506001600160a01b038116620000ae57604051631e4fbdf760e01b81526000600482015260240160405180910390fd5b620000b981620000ea565b5060405180606001604052806026815260200162001daa60269139600b90620000e39082620001e3565b50620002af565b600780546001600160a01b038381166001600160a01b0319831681179093556040519116919082907f8be0079c531659141344cd1fd0a4f28419497f9722a3daafe3b4186f6b6457e090600090a35050565b634e487b7160e01b600052604160045260246000fd5b600181811c908216806200016757607f821691505b6020821081036200018857634e487b7160e01b600052602260045260246000fd5b50919050565b601f821115620001de576000816000526020600020601f850160051c81016020861015620001b95750805b601f850160051c820191505b81811015620001da57828155600101620001c5565b5050505b505050565b81516001600160401b03811115620001ff57620001ff6200013c565b620002178162000210845462000152565b846200018e565b602080601f8311600181146200024f5760008415620002365750858301515b600019600386901b1c1916600185901b178555620001da565b600085815260208120601f198616915b8281101562000280578886015182559484019460019091019084016200025f565b50858210156200029f5787850151600019600388901b60f8161c191681555b5050505050600190811b01905550565b611aeb80620002bf6000396000f3fe6080604052600436106101815760003560e01c80636a627842116100d1578063b88d4fde1161008a578063f2fde38b11610064578063f2fde38b14610427578063f4a0a52814610447578063fa07ce1d14610467578063fddcb5ea1461048757600080fd5b8063b88d4fde146103c7578063c87b56dd146103e7578063e985e9c51461040757600080fd5b80636a6278421461032c57806370a082311461033f578063715018a61461035f5780638da5cb5b1461037457806395d89b4114610392578063a22cb465146103a757600080fd5b806332cb6b0c1161013e57806342842e0e1161011857806342842e0e146102b657806355f804b3146102d65780636352211e146102f65780636817c76c1461031657600080fd5b806332cb6b0c146102765780633acd6cb21461028c5780633ccfd60b146102a157600080fd5b806301ffc9a71461018657806306fdde03146101bb578063081812fc146101dd578063095ea7b31461021557806318160ddd1461023757806323b872dd14610256575b600080fd5b34801561019257600080fd5b506101a66101a13660046114cd565b6104b4565b60405190151581526020015b60405180910390f35b3480156101c757600080fd5b506101d06104c5565b6040516101b2919061153a565b3480156101e957600080fd5b506101fd6101f836600461154d565b610557565b6040516001600160a01b0390911681526020016101b2565b34801561022157600080fd5b50610235610230366004611582565b610580565b005b34801561024357600080fd5b506008545b6040519081526020016101b2565b34801561026257600080fd5b506102356102713660046115ac565b61058f565b34801561028257600080fd5b5061024861271081565b34801561029857600080fd5b50610248600581565b3480156102ad57600080fd5b5061023561061f565b3480156102c257600080fd5b506102356102d13660046115ac565b6106a6565b3480156102e257600080fd5b506102356102f1366004611674565b6106c6565b34801561030257600080fd5b506101fd61031136600461154d565b6106da565b34801561032257600080fd5b5061024860095481565b61023561033a3660046116bd565b6106e5565b34801561034b57600080fd5b5061024861035a3660046116bd565b6108a8565b34801561036b57600080fd5b506102356108f0565b34801561038057600080fd5b506007546001600160a01b03166101fd565b34801561039e57600080fd5b506101d0610904565b3480156103b357600080fd5b506102356103c23660046116d8565b610913565b3480156103d357600080fd5b506102356103e2366004611714565b61091e565b3480156103f357600080fd5b506101d061040236600461154d565b610936565b34801561041357600080fd5b506101a6610422366004611790565b610941565b34801561043357600080fd5b506102356104423660046116bd565b61096f565b34801561045357600080fd5b5061023561046236600461154d565b6109ad565b34801561047357600080fd5b506102356104823660046116bd565b6109ba565b34801561049357600080fd5b506102486104a23660046116bd565b600a6020526000908152604090205481565b60006104bf82610a1c565b92915050565b6060600080546104d4906117c3565b80601f0160208091040260200160405190810160405280929190818152602001828054610500906117c3565b801561054d5780601f106105225761010080835404028352916020019161054d565b820191906000526020600020905b81548152906001019060200180831161053057829003601f168201915b5050505050905090565b600061056282610a41565b506000828152600460205260409020546001600160a01b03166104bf565b61058b828233610a7a565b5050565b6001600160a01b0382166105be57604051633250574960e11b8152600060048201526024015b60405180910390fd5b60006105cb838333610a87565b9050836001600160a01b0316816001600160a01b031614610619576040516364283d7b60e01b81526001600160a01b03808616600483015260248201849052821660448201526064016105b5565b50505050565b610627610b80565b478061066c5760405162461bcd60e51b81526020600482015260146024820152734e6f2066756e647320746f20776974686472617760601b60448201526064016105b5565b6007546040516001600160a01b039091169082156108fc029083906000818181858888f1935050505015801561058b573d6000803e3d6000fd5b6106c18383836040518060200160405280600081525061091e565b505050565b6106ce610b80565b600b61058b8282611845565b60006104bf82610a41565b6127106008541061072d5760405162461bcd60e51b815260206004820152601260248201527113585e081cdd5c1c1b1e481c995858da195960721b60448201526064016105b5565b6001600160a01b0381166000908152600a60205260409020546005116107955760405162461bcd60e51b815260206004820152601c60248201527f4d6178206d696e7420706572206164647265737320726561636865640000000060448201526064016105b5565b6009543410156107de5760405162461bcd60e51b8152602060048201526014602482015273125b9cdd59999a58da595b9d081c185e5b595b9d60621b60448201526064016105b5565b6008805490819060006107f08361191b565b90915550506001600160a01b0382166000908152600a602052604081208054916108198361191b565b91905055506108288282610bad565b6000600b61083583610bc7565b604051602001610846929190611934565b60405160208183030381529060405290506108618282610cd0565b81836001600160a01b03167fd35bb95e09c04b219e35047ce7b7b300e3384264ef84a40456943dbc0fc17c148360405161089b919061153a565b60405180910390a3505050565b60006001600160a01b0382166108d4576040516322718ad960e21b8152600060048201526024016105b5565b506001600160a01b031660009081526003602052604090205490565b6108f8610b80565b6109026000610d20565b565b6060600180546104d4906117c3565b61058b338383610d72565b61092984848461058f565b6106193385858585610e09565b60606104bf82610f34565b6001600160a01b03918216600090815260056020908152604080832093909416825291909152205460ff1690565b610977610b80565b6001600160a01b0381166109a157604051631e4fbdf760e01b8152600060048201526024016105b5565b6109aa81610d20565b50565b6109b5610b80565b600955565b6109c2610b80565b61271060085410610a0a5760405162461bcd60e51b815260206004820152601260248201527113585e081cdd5c1c1b1e481c995858da195960721b60448201526064016105b5565b6008805490819060006108198361191b565b60006001600160e01b03198216632483248360e11b14806104bf57506104bf8261103d565b6000818152600260205260408120546001600160a01b0316806104bf57604051637e27328960e01b8152600481018490526024016105b5565b6106c1838383600161108d565b6000828152600260205260408120546001600160a01b0390811690831615610ab457610ab4818486611193565b6001600160a01b03811615610af257610ad160008560008061108d565b6001600160a01b038116600090815260036020526040902080546000190190555b6001600160a01b03851615610b21576001600160a01b0385166000908152600360205260409020805460010190555b60008481526002602052604080822080546001600160a01b0319166001600160a01b0389811691821790925591518793918516917fddf252ad1be2c89b69c2b068fc378daa952ba7f163c4a11628f55a4df523b3ef91a4949350505050565b6007546001600160a01b031633146109025760405163118cdaa760e01b81523360048201526024016105b5565b61058b8282604051806020016040528060008152506111f7565b606081600003610bee5750506040805180820190915260018152600360fc1b602082015290565b8160005b8115610c185780610c028161191b565b9150610c119050600a836119d1565b9150610bf2565b60008167ffffffffffffffff811115610c3357610c336115e8565b6040519080825280601f01601f191660200182016040528015610c5d576020820181803683370190505b5090505b8415610cc857610c726001836119e5565b9150610c7f600a866119f8565b610c8a906030611a0c565b60f81b818381518110610c9f57610c9f611a1f565b60200101906001600160f81b031916908160001a905350610cc1600a866119d1565b9450610c61565b949350505050565b6000828152600660205260409020610ce88282611845565b506040518281527ff8e1a15aba9398e019f0b49df1a4fde98ee17ae345cb5f6b5e2c27f5033e8ce79060200160405180910390a15050565b600780546001600160a01b038381166001600160a01b0319831681179093556040519116919082907f8be0079c531659141344cd1fd0a4f28419497f9722a3daafe3b4186f6b6457e090600090a35050565b6001600160a01b038216610da457604051630b61174360e31b81526001600160a01b03831660048201526024016105b5565b6001600160a01b03838116600081815260056020908152604080832094871680845294825291829020805460ff191686151590811790915591519182527f17307eab39ab6107e8899845ad3d59bd9653f200f220920489ca2b5937696c31910161089b565b6001600160a01b0383163b15610f2d57604051630a85bd0160e11b81526001600160a01b0384169063150b7a0290610e4b908890889087908790600401611a35565b6020604051808303816000875af1925050508015610e86575060408051601f3d908101601f19168201909252610e8391810190611a72565b60015b610eef573d808015610eb4576040519150601f19603f3d011682016040523d82523d6000602084013e610eb9565b606091505b508051600003610ee757604051633250574960e11b81526001600160a01b03851660048201526024016105b5565b805160208201fd5b6001600160e01b03198116630a85bd0160e11b14610f2b57604051633250574960e11b81526001600160a01b03851660048201526024016105b5565b505b5050505050565b6060610f3f82610a41565b5060008281526006602052604081208054610f59906117c3565b80601f0160208091040260200160405190810160405280929190818152602001828054610f85906117c3565b8015610fd25780601f10610fa757610100808354040283529160200191610fd2565b820191906000526020600020905b815481529060010190602001808311610fb557829003601f168201915b505050505090506000610ff060408051602081019091526000815290565b90508051600003611002575092915050565b81511561103457808260405160200161101c929190611a8f565b60405160208183030381529060405292505050919050565b610cc88461120f565b60006001600160e01b031982166380ac58cd60e01b148061106e57506001600160e01b03198216635b5e139f60e01b145b806104bf57506301ffc9a760e01b6001600160e01b03198316146104bf565b80806110a157506001600160a01b03821615155b156111635760006110b184610a41565b90506001600160a01b038316158015906110dd5750826001600160a01b0316816001600160a01b031614155b80156110f057506110ee8184610941565b155b156111195760405163a9fbf51f60e01b81526001600160a01b03841660048201526024016105b5565b81156111615783856001600160a01b0316826001600160a01b03167f8c5be1e5ebec7d5bd14f71427d1e84f3dd0314c0f7b2291e5b200ac8c7c3b92560405160405180910390a45b505b5050600090815260046020526040902080546001600160a01b0319166001600160a01b0392909216919091179055565b61119e838383611284565b6106c1576001600160a01b0383166111cc57604051637e27328960e01b8152600481018290526024016105b5565b60405163177e802f60e01b81526001600160a01b0383166004820152602481018290526044016105b5565b61120183836112e7565b6106c1336000858585610e09565b606061121a82610a41565b50600061123260408051602081019091526000815290565b90506000815111611252576040518060200160405280600081525061127d565b8061125c8461134c565b60405160200161126d929190611a8f565b6040516020818303038152906040525b9392505050565b60006001600160a01b03831615801590610cc85750826001600160a01b0316846001600160a01b031614806112be57506112be8484610941565b80610cc85750506000908152600460205260409020546001600160a01b03908116911614919050565b6001600160a01b03821661131157604051633250574960e11b8152600060048201526024016105b5565b600061131f83836000610a87565b90506001600160a01b038116156106c1576040516339e3563760e11b8152600060048201526024016105b5565b60606000611359836113df565b600101905060008167ffffffffffffffff811115611379576113796115e8565b6040519080825280601f01601f1916602001820160405280156113a3576020820181803683370190505b5090508181016020015b600019016f181899199a1a9b1b9c1cb0b131b232b360811b600a86061a8153600a85049450846113ad57509392505050565b60008072184f03e93ff9f4daa797ed6e38ed64bf6a1f0160401b831061141e5772184f03e93ff9f4daa797ed6e38ed64bf6a1f0160401b830492506040015b6d04ee2d6d415b85acef8100000000831061144a576d04ee2d6d415b85acef8100000000830492506020015b662386f26fc10000831061146857662386f26fc10000830492506010015b6305f5e1008310611480576305f5e100830492506008015b612710831061149457612710830492506004015b606483106114a6576064830492506002015b600a83106104bf5760010192915050565b6001600160e01b0319811681146109aa57600080fd5b6000602082840312156114df57600080fd5b813561127d816114b7565b60005b838110156115055781810151838201526020016114ed565b50506000910152565b600081518084526115268160208601602086016114ea565b601f01601f19169290920160200192915050565b60208152600061127d602083018461150e565b60006020828403121561155f57600080fd5b5035919050565b80356001600160a01b038116811461157d57600080fd5b919050565b6000806040838503121561159557600080fd5b61159e83611566565b946020939093013593505050565b6000806000606084860312156115c157600080fd5b6115ca84611566565b92506115d860208501611566565b9150604084013590509250925092565b634e487b7160e01b600052604160045260246000fd5b600067ffffffffffffffff80841115611619576116196115e8565b604051601f8501601f19908116603f01168101908282118183101715611641576116416115e8565b8160405280935085815286868601111561165a57600080fd5b858560208301376000602087830101525050509392505050565b60006020828403121561168657600080fd5b813567ffffffffffffffff81111561169d57600080fd5b8201601f810184136116ae57600080fd5b610cc8848235602084016115fe565b6000602082840312156116cf57600080fd5b61127d82611566565b600080604083850312156116eb57600080fd5b6116f483611566565b91506020830135801515811461170957600080fd5b809150509250929050565b6000806000806080858703121561172a57600080fd5b61173385611566565b935061174160208601611566565b925060408501359150606085013567ffffffffffffffff81111561176457600080fd5b8501601f8101871361177557600080fd5b611784878235602084016115fe565b91505092959194509250565b600080604083850312156117a357600080fd5b6117ac83611566565b91506117ba60208401611566565b90509250929050565b600181811c908216806117d757607f821691505b6020821081036117f757634e487b7160e01b600052602260045260246000fd5b50919050565b601f8211156106c1576000816000526020600020601f850160051c810160208610156118265750805b601f850160051c820191505b81811015610f2b57828155600101611832565b815167ffffffffffffffff81111561185f5761185f6115e8565b6118738161186d84546117c3565b846117fd565b602080601f8311600181146118a857600084156118905750858301515b600019600386901b1c1916600185901b178555610f2b565b600085815260208120601f198616915b828110156118d7578886015182559484019460019091019084016118b8565b50858210156118f55787850151600019600388901b60f8161c191681555b5050505050600190811b01905550565b634e487b7160e01b600052601160045260246000fd5b60006001820161192d5761192d611905565b5060010190565b6000808454611942816117c3565b6001828116801561195a576001811461196f5761199e565b60ff198416875282151583028701945061199e565b8860005260208060002060005b858110156119955781548a82015290840190820161197c565b50505082870194505b5050505083516119b28183602088016114ea565b01949350505050565b634e487b7160e01b600052601260045260246000fd5b6000826119e0576119e06119bb565b500490565b818103818111156104bf576104bf611905565b600082611a0757611a076119bb565b500690565b808201808211156104bf576104bf611905565b634e487b7160e01b600052603260045260246000fd5b6001600160a01b0385811682528416602082015260408101839052608060608201819052600090611a689083018461150e565b9695505050505050565b600060208284031215611a8457600080fd5b815161127d816114b7565b60008351611aa18184602088016114ea565b8351908301906119b28183602088016114ea56fea2646970667358221220806d157d3f287dddcca84f2e5a4f070df79cc9e8c1583ecaa7e898947b4517eb64736f6c6343000817003368747470733a2f2f64656d6f2d6e66742e6578616d706c652e636f6d2f6d657461646174612f",
  "linkReferences": {},
  "deployedLinkReferences": {}
}