{
  "_format": "hh-sol-artifact-1",
  "contractName": "MockPaymaster",
  "sourceName": "contracts/paymaster/MockPaymaster.sol",
  "abi": [
    {
      "inputs": [],
      "stateMutability": "nonpayable",
      "type": "constructor"
    },
    {
      "anonymous": false,
      "inputs": [
        {
          "indexed": true,
          "internalType": "address",
          "name": "account",
          "type": "address"
        },
        {
          "indexed": false,
          "internalType": "uint256",
          "name": "amount",
          "type": "uint256"
        }
      ],
      "name": "Deposited",
      "type": "event"
    },
    {
      "anonymous": false,
      "inputs": [
        {
          "indexed": true,
          "internalType": "address",
          "name": "user",
          "type": "address"
        }
      ],
      "name": "UserWhitelisted",
      "type": "event"
    },
    {
      "anonymous": false,
      "inputs": [
        {
          "indexed": true,
          "internalType": "address",
          "name": "account",
          "type": "address"
        },
        {
          "indexed": false,
          "internalType": "uint256",
          "name": "amount",
          "type": "uint256"
        }
      ],
      "name": "Withdrawn",
      "type": "event"
    },
    {
      "inputs": [
        {
          "internalType": "address",
          "name": "user",
          "type": "address"
        }
      ],
      "name": "addToWhitelist",
      "outputs": [],
      "stateMutability": "nonpayable",
      "type": "function"
    },
    {
      "inputs": [
        {
          "internalType": "address",
          "name": "",
          "type": "address"
        }
      ],
      "name": "balanceOf",
      "outputs": [
        {
          "internalType": "uint256",
          "name": "",
          "type": "uint256"
        }
      ],
      "stateMutability": "view",
      "type": "function"
    },
    {
      "inputs": [
        {
          "internalType": "address",
          "name": "account",
          "type": "address"
        }
      ],
      "name": "depositFor",
      "outputs": [],
      "stateMutability": "payable",
      "type": "function"
    },
    {
      "inputs": [
        {
          "internalType": "address",
          "name": "user",
          "type": "address"
        }
      ],
      "name": "isWhitelisted",
      "outputs": [
        {
          "internalType": "bool",
          "name": "",
          "type": "bool"
        }
      ],
      "stateMutability": "view",
      "type": "function"
    },
    {
      "inputs": [],
      "name": "owner",
      "outputs": [
        {
          "internalType": "address",
          "name": "",
          "type": "address"
        }
      ],
      "stateMutability": "view",
      "type": "function"
    },
    {
      "inputs": [
        {
          "internalType": "address",
          "name": "user",
          "type": "address"
        }
      ],
      "name": "removeFromWhitelist",
      "outputs": [],
      "stateMutability": "nonpayable",
      "type": "function"
    },
    {
      "inputs": [
        {
          "internalType": "address",
          "name": "",
          "type": "address"
        }
      ],
      "name": "whitelistedUsers",
      "outputs": [
        {
          "internalType": "bool",
          "name": "",
          "type": "bool"
        }
      ],
      "stateMutability": "view",
      "type": "function"
    },
    {
      "inputs": [
        {
          "internalType": "uint256",
          "name": "amount",
          "type": "uint256"
        }
      ],
      "name": "withdraw",
      "outputs": [],
      "stateMutability": "nonpayable",
      "type": "function"
    },
    {
      "stateMutability": "payable",
      "type": "receive"
    }
  ],
  "bytecode": "0x608060405234801561001057600080fd5b50600280546001600160a01b03191633179055610561806100326000396000f3fe60806040526004361061007f5760003560e01c80638da5cb5b1161004e5780638da5cb5b1461015d578063aa67c91914610195578063e43252d7146101a8578063f621cc48146101c857600080fd5b80632e1a7d4d146100945780633af32abf146100b457806370a08231146101025780638ab1d6811461013d57600080fd5b3661008f5761008d336101f8565b005b600080fd5b3480156100a057600080fd5b5061008d6100af3660046104a0565b6102ca565b3480156100c057600080fd5b506100ed6100cf3660046104b9565b6001600160a01b031660009081526001602052604090205460ff1690565b60405190151581526020015b60405180910390f35b34801561010e57600080fd5b5061012f61011d3660046104b9565b60006020819052908152604090205481565b6040519081526020016100f9565b34801561014957600080fd5b5061008d6101583660046104b9565b6103a4565b34801561016957600080fd5b5060025461017d906001600160a01b031681565b6040516001600160a01b0390911681526020016100f9565b61008d6101a33660046104b9565b6101f8565b3480156101b457600080fd5b5061008d6101c33660046104b9565b61040b565b3480156101d457600080fd5b506100ed6101e33660046104b9565b60016020526000908152604090205460ff1681565b6000341161025b5760405162461bcd60e51b815260206004820152602560248201527f4465706f73697420616d6f756e74206d75737420626520677265617465722074604482015264068616e20360dc1b60648201526084015b60405180910390fd5b6001600160a01b038116600090815260208190526040812080543492906102839084906104ff565b90915550506040513481526001600160a01b038216907f2da466a7b24304f47e87fa2e1e5a81b9831ce54fec19055ce277ca2f39ba42c4906020015b60405180910390a250565b336000908152602081905260409020548111156103205760405162461bcd60e51b8152602060048201526014602482015273496e73756666696369656e742062616c616e636560601b6044820152606401610252565b336000908152602081905260408120805483929061033f908490610518565b9091555050604051339082156108fc029083906000818181858888f19350505050158015610371573d6000803e3d6000fd5b5060405181815233907f7084f5476618d8e60b11ef0d7d3f06914655adb8793e28ff7f018d4c76d505d5906020016102bf565b6002546001600160a01b031633146103ea5760405162461bcd60e51b81526020600482015260096024820152682737ba1037bbb732b960b91b6044820152606401610252565b6001600160a01b03166000908152600160205260409020805460ff19169055565b6002546001600160a01b031633146104515760405162461bcd60e51b81526020600482015260096024820152682737ba1037bbb732b960b91b6044820152606401610252565b6001600160a01b0381166000818152600160208190526040808320805460ff1916909217909155517f7409cb8e690bcd1487fd4fd27dad3fa92388d201ba6f953631d6d6b26299f8499190a250565b6000602082840312156104b257600080fd5b5035919050565b6000602082840312156104cb57600080fd5b81356001600160a01b03811681146104e257600080fd5b9392505050565b634e487b7160e01b600052601160045260246000fd5b80820180821115610512576105126104e9565b92915050565b81810381811115610512576105126104e956fea26469706673582212207e8c5308fc19bbbcaf12771b784d39634a93dc0b35461b077bf1bcbbe75be95564736f6c63430008170033",
  "linkReferences": {},
  "deployedLinkReferences": {}
}