{
  "_format": "hh-sol-artifact-1",
  "contractName": "SimpleAccountFactory",
  "sourceName": "contracts/account/SimpleAccountFactory.sol",
  "abi": [
    {
      "inputs": [
        {
          "internalType": "contract IEntryPoint",
          "name": "_entryPoint",
          "type": "address"
        }
      ],
      "stateMutability": "nonpayable",
      "type": "constructor"
    },
    {
      "inputs": [],
      "name": "accountImplementation",
      "outputs": [
        {
          "internalType": "contract SimpleAccount",
          "name": "",
          "type": "address"
        }
      ],
      "stateMutability": "view",
      "type": "function"
    },
    {
      "inputs": [
        {
          "internalType": "address",
          "name": "owner",
          "type": "address"
        },
        {
          "internalType": "uint256",
          "name": "salt",
          "type": "uint256"
        }
      ],
      "name": "createAccount",
      "outputs": [
        {
          "internalType": "contract SimpleAccount",
          "name": "ret",
          "type": "address"
        }
      ],
      "stateMutability": "nonpayable",
      "type": "function"
    },
    {
      "inputs": [
        {
          "internalType": "address",
          "name": "owner",
          "type": "address"
        },
        {
          "internalType": "uint256",
          "name": "salt",
          "type": "uint256"
        }
      ],
      "name": "getAddress",
      "outputs": [
        {
          "internalType": "address",
          "name": "",
          "type": "address"
        }
      ],
      "stateMutability": "view",
      "type": "function"
    }
  ],
  "bytecode": "0x60a060405234801561001057600080fd5b50604051611f76380380611f7683398101604081905261002f91610088565b8060405161003c9061007b565b6001600160a01b039091168152602001604051809103906000f080158015610068573d6000803e3d6000fd5b506001600160a01b0316608052506100b8565b6116708061090683390190565b60006020828403121561009a57600080fd5b81516001600160a01b03811681146100b157600080fd5b9392505050565b6080516108276100df60003960008181604b0152818160ed015261023e01526108276000f3fe608060405234801561001057600080fd5b50600436106100415760003560e01c806311464fbe146100465780635fbfb9cf146100895780638cb84e181461009c575b600080fd5b61006d7f000000000000000000000000000000000000000000000000000000000000000081565b6040516001600160a01b03909116815260200160405180910390f35b61006d61009736600461031b565b6100af565b61006d6100aa36600461031b565b6101ff565b6000806100bc84846101ff565b90506001600160a01b0381163b80156100d7575090506101f9565b6040516001600160a01b038616602482015284907f00000000000000000000000000000000000000000000000000000000000000009060440160408051601f198184030181529181526020820180516001600160e01b031663189acdbd60e31b179052516101449061030e565b61014f929190610377565b8190604051809103906000f590508015801561016f573d6000803e3d6000fd5b509250816001600160a01b0316836001600160a01b0316146101f65760405162461bcd60e51b815260206004820152603660248201527f53696d706c654163636f756e74466163746f72793a20637265617465642061636044820152750c6deeadce840c2c8c8e4cae6e640dad2e6dac2e8c6d60531b606482015260840160405180910390fd5b50505b92915050565b60006102d48260001b604051806020016102189061030e565b601f1982820381018352601f9091011660408190526001600160a01b03871660248201527f00000000000000000000000000000000000000000000000000000000000000009060440160408051601f19818403018152918152602080830180516001600160e01b031663189acdbd60e31b179052905161029a93929101610377565b60408051601f19818403018152908290526102b892916020016103b9565b60405160208183030381529060405280519060200120306102db565b9392505050565b6000604051836040820152846020820152828152600b8101905060ff8153605590206001600160a01b0316949350505050565b610409806103e983390190565b6000806040838503121561032e57600080fd5b82356001600160a01b038116811461034557600080fd5b946020939093013593505050565b60005b8381101561036e578181015183820152602001610356565b50506000910152565b60018060a01b038316815260406020820152600082518060408401526103a4816060850160208701610353565b601f01601f1916919091016060019392505050565b600083516103cb818460208801610353565b8351908301906103df818360208801610353565b0194935050505056fe608060405260405161040938038061040983398101604081905261002291610267565b61002c8282610033565b5050610351565b61003c82610092565b6040516001600160a01b038316907fbc7cd75a20ee27fd9adebab32041f755214dbc6bffa90cc0225b39da2e5c2d3b90600090a280511561008657610081828261010e565b505050565b61008e610185565b5050565b806001600160a01b03163b6000036100cd57604051634c9c8ce360e01b81526001600160a01b03821660048201526024015b60405180910390fd5b7f360894a13ba1a3210667c828492db98dca3e2076cc3735a920a3ca505d382bbc80546001600160a01b0319166001600160a01b0392909216919091179055565b6060600080846001600160a01b03168460405161012b9190610335565b600060405180830381855af49150503d8060008114610166576040519150601f19603f3d011682016040523d82523d6000602084013e61016b565b606091505b50909250905061017c8583836101a6565b95945050505050565b34156101a45760405163b398979f60e01b815260040160405180910390fd5b565b6060826101bb576101b682610205565b6101fe565b81511580156101d257506001600160a01b0384163b155b156101fb57604051639996b31560e01b81526001600160a01b03851660048201526024016100c4565b50805b9392505050565b80511561021457805160208201fd5b60405163d6bda27560e01b815260040160405180910390fd5b634e487b7160e01b600052604160045260246000fd5b60005b8381101561025e578181015183820152602001610246565b50506000910152565b6000806040838503121561027a57600080fd5b82516001600160a01b038116811461029157600080fd5b60208401519092506001600160401b03808211156102ae57600080fd5b818501915085601f8301126102c257600080fd5b8151818111156102d4576102d461022d565b604051601f8201601f19908116603f011681019083821181831017156102fc576102fc61022d565b8160405282815288602084870101111561031557600080fd5b610326836020830160208801610243565b80955050505050509250929050565b60008251610347818460208701610243565b9190910192915050565b60aa8061035f6000396000f3fe6080604052600a600c565b005b60186014601a565b6051565b565b6000604c7f360894a13ba1a3210667c828492db98dca3e2076cc3735a920a3ca505d382bbc546001600160a01b031690565b905090565b3660008037600080366000845af43d6000803e808015606f573d6000f35b3d6000fdfea26469706673582212208412c0f1000a19ab365fc9e61f8dc1f89115bfd4e3fabb7011ce47be3fe358a764736f6c63430008170033a264697066735822122010e2387ea83432ec4a3752b636e615022b84c7a65f2aa0ca975061a61c5b2dbe64736f6c6343000817003360c06040523060805234801561001457600080fd5b5060405161167038038061167083398101604081905261003391610100565b6001600160a01b03811660a05261004861004e565b50610130565b7ff0c57e16840df040f15088dc2f81fe391c3923bec73e23a9662efc9c229c6a00805468010000000000000000900460ff161561009e5760405163f92ee8a960e01b815260040160405180910390fd5b80546001600160401b03908116146100fd5780546001600160401b0319166001600160401b0390811782556040519081527fc7f505b2f371ae2175ee4913f4499e1f2633a7b5936321eed1cdaeb6115181d29060200160405180910390a15b50565b60006020828403121561011257600080fd5b81516001600160a01b038116811461012957600080fd5b9392505050565b60805160a0516114dc610194600039600081816101fc01528181610435015281816104bd015281816105e70152818161077a015281816107b4015281816109260152610c6f015260008181610a7401528181610a9d0152610be301526114dc6000f3fe6080604052600436106100c65760003560e01c80638da5cb5b1161007f578063b61d27f611610059578063b61d27f614610220578063c399ec8814610240578063c4d66de814610255578063d087d2881461027557600080fd5b80638da5cb5b14610177578063ad3cb1cc146101af578063b0d691fe146101ed57600080fd5b806319822f7c146100d257806347e1da2a146101055780634a58db19146101275780634d44560d1461012f5780634f1ef2861461014f57806352d1902d1461016257600080fd5b366100cd57005b600080fd5b3480156100de57600080fd5b506100f26100ed36600461108c565b61028a565b6040519081526020015b60405180910390f35b34801561011157600080fd5b5061012561012036600461112c565b6102b0565b005b610125610433565b34801561013b57600080fd5b5061012561014a3660046111db565b6104b3565b61012561015d36600461121d565b61053c565b34801561016e57600080fd5b506100f261055b565b34801561018357600080fd5b50600054610197906001600160a01b031681565b6040516001600160a01b0390911681526020016100fc565b3480156101bb57600080fd5b506101e0604051806040016040528060058152602001640352e302e360dc1b81525081565b6040516100fc9190611305565b3480156101f957600080fd5b507f0000000000000000000000000000000000000000000000000000000000000000610197565b34801561022c57600080fd5b5061012561023b366004611338565b610578565b34801561024c57600080fd5b506100f26105c7565b34801561026157600080fd5b506101256102703660046113c1565b610658565b34801561028157600080fd5b506100f2610753565b60006102946107a9565b61029e8484610823565b90506102a9826108ce565b9392505050565b6102b861091b565b84811480156102ce57508215806102ce57508281145b6103155760405162461bcd60e51b815260206004820152601360248201527277726f6e67206172726179206c656e6774687360681b60448201526064015b60405180910390fd5b60008390036103c15760005b858110156103bb576103b387878381811061033e5761033e6113de565b905060200201602081019061035391906113c1565b6000858585818110610367576103676113de565b905060200281019061037991906113f4565b8080601f0160208091040260200160405190810160405280939291908181526020018383808284376000920191909152506109a892505050565b600101610321565b5061042b565b60005b85811015610429576104218787838181106103e1576103e16113de565b90506020020160208101906103f691906113c1565b868684818110610408576104086113de565b90506020020135858585818110610367576103676113de565b6001016103c4565b505b505050505050565b7f000000000000000000000000000000000000000000000000000000000000000060405163b760faf960e01b81523060048201526001600160a01b03919091169063b760faf99034906024016000604051808303818588803b15801561049857600080fd5b505af11580156104ac573d6000803e3d6000fd5b5050505050565b6104bb610a18565b7f000000000000000000000000000000000000000000000000000000000000000060405163040b850f60e31b81526001600160a01b03848116600483015260248201849052919091169063205c287890604401600060405180830381600087803b15801561052857600080fd5b505af115801561042b573d6000803e3d6000fd5b610544610a69565b61054d82610b0e565b6105578282610b16565b5050565b6000610565610bd8565b5060008051602061148783398151915290565b61058061091b565b6105c1848484848080601f0160208091040260200160405190810160405280939291908181526020018383808284376000920191909152506109a892505050565b50505050565b6040516370a0823160e01b81523060048201526000906001600160a01b037f000000000000000000000000000000000000000000000000000000000000000016906370a08231906024015b602060405180830381865afa15801561062f573d6000803e3d6000fd5b505050506040513d601f19601f82011682018060405250810190610653919061143b565b905090565b6000610662610c21565b805490915060ff600160401b820416159067ffffffffffffffff1660008115801561068a5750825b905060008267ffffffffffffffff1660011480156106a75750303b155b9050811580156106b5575080155b156106d35760405163f92ee8a960e01b815260040160405180910390fd5b845467ffffffffffffffff1916600117855583156106fd57845460ff60401b1916600160401b1785555b61070686610c4a565b831561042b57845460ff60401b19168555604051600181527fc7f505b2f371ae2175ee4913f4499e1f2633a7b5936321eed1cdaeb6115181d29060200160405180910390a1505050505050565b604051631aab3f0d60e11b8152306004820152600060248201819052906001600160a01b037f000000000000000000000000000000000000000000000000000000000000000016906335567e1a90604401610612565b336001600160a01b037f000000000000000000000000000000000000000000000000000000000000000016146108215760405162461bcd60e51b815260206004820152601c60248201527f6163636f756e743a206e6f742066726f6d20456e747279506f696e7400000000604482015260640161030c565b565b7f19457468657265756d205369676e6564204d6573736167653a0a3332000000006000908152601c829052603c81206108a06108636101008601866113f4565b8080601f0160208091040260200160405190810160405280939291908181526020018383808284376000920191909152508593925050610cb99050565b6000546001600160a01b039081169116146108bf5760019150506108c5565b60009150505b92915050565b50565b80156108cb57604051600090339060001990849084818181858888f193505050503d80600081146104ac576040519150601f19603f3d011682016040523d82523d6000602084013e6104ac565b336001600160a01b037f000000000000000000000000000000000000000000000000000000000000000016148061095c57506000546001600160a01b031633145b6108215760405162461bcd60e51b815260206004820181905260248201527f6163636f756e743a206e6f74204f776e6572206f7220456e747279506f696e74604482015260640161030c565b600080846001600160a01b031684846040516109c49190611454565b60006040518083038185875af1925050503d8060008114610a01576040519150601f19603f3d011682016040523d82523d6000602084013e610a06565b606091505b5091509150816104ac57805160208201fd5b6000546001600160a01b0316331480610a3057503330145b6108215760405162461bcd60e51b815260206004820152600a60248201526937b7363c9037bbb732b960b11b604482015260640161030c565b306001600160a01b037f0000000000000000000000000000000000000000000000000000000000000000161480610af057507f00000000000000000000000000000000000000000000000000000000000000006001600160a01b0316610ae4600080516020611487833981519152546001600160a01b031690565b6001600160a01b031614155b156108215760405163703e46dd60e11b815260040160405180910390fd5b6108cb610a18565b816001600160a01b03166352d1902d6040518163ffffffff1660e01b8152600401602060405180830381865afa925050508015610b70575060408051601f3d908101601f19168201909252610b6d9181019061143b565b60015b610b9857604051634c9c8ce360e01b81526001600160a01b038316600482015260240161030c565b6000805160206114878339815191528114610bc957604051632a87526960e21b81526004810182905260240161030c565b610bd38383610ce3565b505050565b306001600160a01b037f000000000000000000000000000000000000000000000000000000000000000016146108215760405163703e46dd60e11b815260040160405180910390fd5b6000807ff0c57e16840df040f15088dc2f81fe391c3923bec73e23a9662efc9c229c6a006108c5565b600080546001600160a01b0319166001600160a01b03838116918217835560405191927f0000000000000000000000000000000000000000000000000000000000000000909116917f47e55c76e7a6f1fd8996a1da8008c1ea29699cca35e7bcd057f2dec313b6e5de9190a350565b600080600080610cc98686610d39565b925092509250610cd98282610d86565b5090949350505050565b610cec82610e3f565b6040516001600160a01b038316907fbc7cd75a20ee27fd9adebab32041f755214dbc6bffa90cc0225b39da2e5c2d3b90600090a2805115610d3157610bd38282610ea4565b610557610f1a565b60008060008351604103610d735760208401516040850151606086015160001a610d6588828585610f39565b955095509550505050610d7f565b50508151600091506002905b9250925092565b6000826003811115610d9a57610d9a611470565b03610da3575050565b6001826003811115610db757610db7611470565b03610dd55760405163f645eedf60e01b815260040160405180910390fd5b6002826003811115610de957610de9611470565b03610e0a5760405163fce698f760e01b81526004810182905260240161030c565b6003826003811115610e1e57610e1e611470565b03610557576040516335e2f38360e21b81526004810182905260240161030c565b806001600160a01b03163b600003610e7557604051634c9c8ce360e01b81526001600160a01b038216600482015260240161030c565b60008051602061148783398151915280546001600160a01b0319166001600160a01b0392909216919091179055565b6060600080846001600160a01b031684604051610ec19190611454565b600060405180830381855af49150503d8060008114610efc576040519150601f19603f3d011682016040523d82523d6000602084013e610f01565b606091505b5091509150610f11858383611008565b95945050505050565b34156108215760405163b398979f60e01b815260040160405180910390fd5b600080807f7fffffffffffffffffffffffffffffff5d576e7357a4501ddfe92f46681b20a0841115610f745750600091506003905082610ffe565b604080516000808252602082018084528a905260ff891692820192909252606081018790526080810186905260019060a0016020604051602081039080840390855afa158015610fc8573d6000803e3d6000fd5b5050604051601f1901519150506001600160a01b038116610ff457506000925060019150829050610ffe565b9250600091508190505b9450945094915050565b60608261101d5761101882611064565b6102a9565b815115801561103457506001600160a01b0384163b155b1561105d57604051639996b31560e01b81526001600160a01b038516600482015260240161030c565b50806102a9565b80511561107357805160208201fd5b60405163d6bda27560e01b815260040160405180910390fd5b6000806000606084860312156110a157600080fd5b833567ffffffffffffffff8111156110b857600080fd5b840161012081870312156110cb57600080fd5b95602085013595506040909401359392505050565b60008083601f8401126110f257600080fd5b50813567ffffffffffffffff81111561110a57600080fd5b6020830191508360208260051b850101111561112557600080fd5b9250929050565b6000806000806000806060878903121561114557600080fd5b863567ffffffffffffffff8082111561115d57600080fd5b6111698a838b016110e0565b9098509650602089013591508082111561118257600080fd5b61118e8a838b016110e0565b909650945060408901359150808211156111a757600080fd5b506111b489828a016110e0565b979a9699509497509295939492505050565b6001600160a01b03811681146108cb57600080fd5b600080604083850312156111ee57600080fd5b82356111f9816111c6565b946020939093013593505050565b634e487b7160e01b600052604160045260246000fd5b6000806040838503121561123057600080fd5b823561123b816111c6565b9150602083013567ffffffffffffffff8082111561125857600080fd5b818501915085601f83011261126c57600080fd5b81358181111561127e5761127e611207565b604051601f8201601f19908116603f011681019083821181831017156112a6576112a6611207565b816040528281528860208487010111156112bf57600080fd5b8260208601602083013760006020848301015280955050505050509250929050565b60005b838110156112fc5781810151838201526020016112e4565b50506000910152565b60208152600082518060208401526113248160408501602087016112e1565b601f01601f19169190910160400192915050565b6000806000806060858703121561134e57600080fd5b8435611359816111c6565b935060208501359250604085013567ffffffffffffffff8082111561137d57600080fd5b818701915087601f83011261139157600080fd5b8135818111156113a057600080fd5b8860208285010111156113b257600080fd5b95989497505060200194505050565b6000602082840312156113d357600080fd5b81356102a9816111c6565b634e487b7160e01b600052603260045260246000fd5b6000808335601e1984360301811261140b57600080fd5b83018035915067ffffffffffffffff82111561142657600080fd5b60200191503681900382131561112557600080fd5b60006020828403121561144d57600080fd5b5051919050565b600082516114668184602087016112e1565b9190910192915050565b634e487b7160e01b600052602160045260246000fdfe360894a13ba1a3210667c828492db98dca3e2076cc3735a920a3ca505d382bbca2646970667358221220685d80140a4eca43a537dcc6348571223989ef5165295b5163be7dbd2039b0b064736f6c63430008170033",
  "linkReferences": {},
  "deployedLinkReferences": {}
}